{
  "contractName": "Auction",
  "abi": [
    {
      "inputs": [
        {
          "internalType": "uint256",
          "name": "_startingBid",
          "type": "uint256"
        }
      ],
      "stateMutability": "nonpayable",
      "type": "constructor"
    },
    {
      "anonymous": false,
      "inputs": [
        {
          "indexed": true,
          "internalType": "address",
          "name": "sender",
          "type": "address"
        },
        {
          "indexed": false,
          "internalType": "uint256",
          "name": "amount",
          "type": "uint256"
        }
      ],
      "name": "Bid",
      "type": "event"
    },
    {
      "anonymous": false,
      "inputs": [
        {
          "indexed": false,
          "internalType": "address",
          "name": "winner",
          "type": "address"
        },
        {
          "indexed": false,
          "internalType": "uint256",
          "name": "amount",
          "type": "uint256"
        }
      ],
      "name": "End",
      "type": "event"
    },
    {
      "anonymous": false,
      "inputs": [],
      "name": "Start",
      "type": "event"
    },
    {
      "anonymous": false,
      "inputs": [
        {
          "indexed": true,
          "internalType": "address",
          "name": "bidder",
          "type": "address"
        },
        {
          "indexed": false,
          "internalType": "uint256",
          "name": "amount",
          "type": "uint256"
        }
      ],
      "name": "Withdraw",
      "type": "event"
    },
    {
      "inputs": [
        {
          "internalType": "address",
          "name": "",
          "type": "address"
        }
      ],
      "name": "bids",
      "outputs": [
        {
          "internalType": "uint256",
          "name": "",
          "type": "uint256"
        }
      ],
      "stateMutability": "view",
      "type": "function",
      "constant": true
    },
    {
      "inputs": [],
      "name": "endAt",
      "outputs": [
        {
          "internalType": "uint256",
          "name": "",
          "type": "uint256"
        }
      ],
      "stateMutability": "view",
      "type": "function",
      "constant": true
    },
    {
      "inputs": [],
      "name": "ended",
      "outputs": [
        {
          "internalType": "bool",
          "name": "",
          "type": "bool"
        }
      ],
      "stateMutability": "view",
      "type": "function",
      "constant": true
    },
    {
      "inputs": [],
      "name": "highestBid",
      "outputs": [
        {
          "internalType": "uint256",
          "name": "",
          "type": "uint256"
        }
      ],
      "stateMutability": "view",
      "type": "function",
      "constant": true
    },
    {
      "inputs": [],
      "name": "highestBidder",
      "outputs": [
        {
          "internalType": "address",
          "name": "",
          "type": "address"
        }
      ],
      "stateMutability": "view",
      "type": "function",
      "constant": true
    },
    {
      "inputs": [],
      "name": "seller",
      "outputs": [
        {
          "internalType": "address payable",
          "name": "",
          "type": "address"
        }
      ],
      "stateMutability": "view",
      "type": "function",
      "constant": true
    },
    {
      "inputs": [],
      "name": "started",
      "outputs": [
        {
          "internalType": "bool",
          "name": "",
          "type": "bool"
        }
      ],
      "stateMutability": "view",
      "type": "function",
      "constant": true
    },
    {
      "inputs": [],
      "name": "start",
      "outputs": [],
      "stateMutability": "nonpayable",
      "type": "function"
    },
    {
      "inputs": [],
      "name": "bid",
      "outputs": [],
      "stateMutability": "payable",
      "type": "function",
      "payable": true
    },
    {
      "inputs": [],
      "name": "withdraw",
      "outputs": [],
      "stateMutability": "nonpayable",
      "type": "function"
    },
    {
      "inputs": [],
      "name": "end",
      "outputs": [],
      "stateMutability": "nonpayable",
      "type": "function"
    }
  ],
  "bytecode": "0x608060405234801561001057600080fd5b50604051610e66380380610e66833981810160405281019061003291906100ba565b336000806101000a81548173ffffffffffffffffffffffffffffffffffffffff021916908373ffffffffffffffffffffffffffffffffffffffff16021790555080600381905550506100e7565b600080fd5b6000819050919050565b61009781610084565b81146100a257600080fd5b50565b6000815190506100b48161008e565b92915050565b6000602082840312156100d0576100cf61007f565b5b60006100de848285016100a5565b91505092915050565b610d70806100f66000396000f3fe60806040526004361061009c5760003560e01c806362ea82db1161006457806362ea82db146101435780637cc3ae8c1461018057806391f90157146101ab578063be9a6555146101d6578063d57bde79146101ed578063efbe1c1c146102185761009c565b806308551a53146100a157806312fa6feb146100cc5780631998aeef146100f75780631f2698ab146101015780633ccfd60b1461012c575b600080fd5b3480156100ad57600080fd5b506100b661022f565b6040516100c391906108f6565b60405180910390f35b3480156100d857600080fd5b506100e1610253565b6040516100ee919061092c565b60405180910390f35b6100ff610266565b005b34801561010d57600080fd5b506101166104a1565b604051610123919061092c565b60405180910390f35b34801561013857600080fd5b506101416104b4565b005b34801561014f57600080fd5b5061016a6004803603810190610165919061098a565b6105d5565b60405161017791906109d0565b60405180910390f35b34801561018c57600080fd5b506101956105ed565b6040516101a291906109d0565b60405180910390f35b3480156101b757600080fd5b506101c06105f3565b6040516101cd91906109fa565b60405180910390f35b3480156101e257600080fd5b506101eb610617565b005b3480156101f957600080fd5b50610202610753565b60405161020f91906109d0565b60405180910390f35b34801561022457600080fd5b5061022d610759565b005b60008054906101000a900473ffffffffffffffffffffffffffffffffffffffff1681565b600260019054906101000a900460ff1681565b600260009054906101000a900460ff166102b5576040517f08c379a00000000000000000000000000000000000000000000000000000000081526004016102ac90610a72565b60405180910390fd5b60015442106102f9576040517f08c379a00000000000000000000000000000000000000000000000000000000081526004016102f090610ade565b60405180910390fd5b600354341161033d576040517f08c379a000000000000000000000000000000000000000000000000000000000815260040161033490610b4a565b60405180910390fd5b600073ffffffffffffffffffffffffffffffffffffffff1660028054906101000a900473ffffffffffffffffffffffffffffffffffffffff1673ffffffffffffffffffffffffffffffffffffffff161461040a576003546004600060028054906101000a900473ffffffffffffffffffffffffffffffffffffffff1673ffffffffffffffffffffffffffffffffffffffff1673ffffffffffffffffffffffffffffffffffffffff16815260200190815260200160002060008282546104029190610b99565b925050819055505b336002806101000a81548173ffffffffffffffffffffffffffffffffffffffff021916908373ffffffffffffffffffffffffffffffffffffffff160217905550346003819055503373ffffffffffffffffffffffffffffffffffffffff167fe684a55f31b79eca403df938249029212a5925ec6be8012e099b45bc1019e5d23460405161049791906109d0565b60405180910390a2565b600260009054906101000a900460ff1681565b6000600460003373ffffffffffffffffffffffffffffffffffffffff1673ffffffffffffffffffffffffffffffffffffffff1681526020019081526020016000205490506000600460003373ffffffffffffffffffffffffffffffffffffffff1673ffffffffffffffffffffffffffffffffffffffff168152602001908152602001600020819055503373ffffffffffffffffffffffffffffffffffffffff166108fc829081150290604051600060405180830381858888f19350505050158015610583573d6000803e3d6000fd5b503373ffffffffffffffffffffffffffffffffffffffff167f884edad9ce6fa2440d8a54cc123490eb96d2768479d49ff9c7366125a9424364826040516105ca91906109d0565b60405180910390a250565b60046020528060005260406000206000915090505481565b60015481565b60028054906101000a900473ffffffffffffffffffffffffffffffffffffffff1681565b600260009054906101000a900460ff1615610667576040517f08c379a000000000000000000000000000000000000000000000000000000000815260040161065e90610c19565b60405180910390fd5b60008054906101000a900473ffffffffffffffffffffffffffffffffffffffff1673ffffffffffffffffffffffffffffffffffffffff163373ffffffffffffffffffffffffffffffffffffffff16146106f5576040517f08c379a00000000000000000000000000000000000000000000000000000000081526004016106ec90610c85565b60405180910390fd5b6001600260006101000a81548160ff021916908315150217905550620151804261071f9190610b99565b6001819055507f1b55ba3aa851a46be3b365aee5b5c140edd620d578922f3e8466d2cbd96f954b60405160405180910390a1565b60035481565b600260009054906101000a900460ff166107a8576040517f08c379a000000000000000000000000000000000000000000000000000000000815260040161079f90610a72565b60405180910390fd5b6001544210156107ed576040517f08c379a00000000000000000000000000000000000000000000000000000000081526004016107e490610cf1565b60405180910390fd5b600260019054906101000a900460ff161561083d576040517f08c379a000000000000000000000000000000000000000000000000000000000815260040161083490610ade565b60405180910390fd5b6001600260016101000a81548160ff0219169083151502179055507f7d7570b046e5ead3a4f3fbc9fa2445113625a1e79823776146316bafed6b8cc560028054906101000a900473ffffffffffffffffffffffffffffffffffffffff166003546040516108ab929190610d11565b60405180910390a1565b600073ffffffffffffffffffffffffffffffffffffffff82169050919050565b60006108e0826108b5565b9050919050565b6108f0816108d5565b82525050565b600060208201905061090b60008301846108e7565b92915050565b60008115159050919050565b61092681610911565b82525050565b6000602082019050610941600083018461091d565b92915050565b600080fd5b6000610957826108b5565b9050919050565b6109678161094c565b811461097257600080fd5b50565b6000813590506109848161095e565b92915050565b6000602082840312156109a05761099f610947565b5b60006109ae84828501610975565b91505092915050565b6000819050919050565b6109ca816109b7565b82525050565b60006020820190506109e560008301846109c1565b92915050565b6109f48161094c565b82525050565b6000602082019050610a0f60008301846109eb565b92915050565b600082825260208201905092915050565b7f6e6f742073746172746564000000000000000000000000000000000000000000600082015250565b6000610a5c600b83610a15565b9150610a6782610a26565b602082019050919050565b60006020820190508181036000830152610a8b81610a4f565b9050919050565b7f656e646564000000000000000000000000000000000000000000000000000000600082015250565b6000610ac8600583610a15565b9150610ad382610a92565b602082019050919050565b60006020820190508181036000830152610af781610abb565b9050919050565b7f76616c7565203c20686967686573740000000000000000000000000000000000600082015250565b6000610b34600f83610a15565b9150610b3f82610afe565b602082019050919050565b60006020820190508181036000830152610b6381610b27565b9050919050565b7f4e487b7100000000000000000000000000000000000000000000000000000000600052601160045260246000fd5b6000610ba4826109b7565b9150610baf836109b7565b9250828201905080821115610bc757610bc6610b6a565b5b92915050565b7f7374617274656400000000000000000000000000000000000000000000000000600082015250565b6000610c03600783610a15565b9150610c0e82610bcd565b602082019050919050565b60006020820190508181036000830152610c3281610bf6565b9050919050565b7f6e6f742073656c6c657200000000000000000000000000000000000000000000600082015250565b6000610c6f600a83610a15565b9150610c7a82610c39565b602082019050919050565b60006020820190508181036000830152610c9e81610c62565b9050919050565b7f656e642074696d6520696e206675747572650000000000000000000000000000600082015250565b6000610cdb601283610a15565b9150610ce682610ca5565b602082019050919050565b60006020820190508181036000830152610d0a81610cce565b9050919050565b6000604082019050610d2660008301856109eb565b610d3360208301846109c1565b939250505056fea2646970667358221220d1bc43884c383f2b46914bc707dc78cbd196b5108336e0fa8e9a764e2e5e4d1c64736f6c63430008110033",
  "immutableReferences": {},
  "source": "// SPDX-License-Identifier: UNLICENSED\npragma solidity ^0.8.13;\n\ncontract Auction {\n    event Start();\n    event Bid(address indexed sender, uint amount);\n    event Withdraw(address indexed bidder, uint amount);\n    event End(address winner, uint amount);\n\n    // IERC721 public nft;\n    // uint public nftId;\n\n    address payable public seller;\n    uint public endAt;\n    bool public started;\n    bool public ended;\n\n    address public highestBidder;\n    uint public highestBid; // Wei\n    mapping(address => uint) public bids;\n\n    constructor(\n        // address _nft,\n        // uint _nftId,\n        uint _startingBid\n    ) {\n        // nft = IERC721(_nft);\n        // nftId = _nftId;\n\n        seller = payable(msg.sender);\n        highestBid = _startingBid;\n    }\n\n    function start() external {\n        require(!started, \"started\");\n        require(msg.sender == seller, \"not seller\");\n\n        // nft.transferFrom(msg.sender, address(this), nftId);\n        started = true;\n        endAt = block.timestamp + 1 days;\n\n        emit Start();\n    }\n\n    function bid() external payable {\n        require(started, \"not started\");\n        require(block.timestamp < endAt, \"ended\");\n        require(msg.value > highestBid, \"value < highest\");\n\n        if (highestBidder != address(0)) {\n            bids[highestBidder] += highestBid;\n        }\n\n        highestBidder = msg.sender;\n        highestBid = msg.value;\n\n        emit Bid(msg.sender, msg.value);\n    }\n\n    function withdraw() external {\n        uint bal = bids[msg.sender];\n        bids[msg.sender] = 0;\n        payable(msg.sender).transfer(bal);\n\n        emit Withdraw(msg.sender, bal);\n    }\n\n    function end() external {\n        require(started, \"not started\");\n        require(block.timestamp >= endAt, \"end time in future\");\n        require(!ended, \"ended\");\n\n        ended = true;\n        // if (highestBidder != address(0)) {\n        //     nft.safeTransferFrom(address(this), highestBidder, nftId);\n        //     seller.transfer(highestBid);\n        // } else {\n        //     nft.safeTransferFrom(address(this), seller, nftId);\n        // }\n\n        emit End(highestBidder, highestBid);\n    }\n}",
  "sourcePath": "/Users/joshquintal/dev/off-site-workshop-22/contracts/Auction.sol",
  "compiler": {
    "name": "solc",
    "version": "0.8.17+commit.8df45f5f.Emscripten.clang"
  },
  "schemaVersion": "3.4.10",
  "updatedAt": "2022-10-18T02:14:20.634Z",
  "networkType": "ethereum",
  "devdoc": {
    "kind": "dev",
    "methods": {},
    "version": 1
  },
  "userdoc": {
    "kind": "user",
    "methods": {},
    "version": 1
  }
}